:020000040000FA
:101000000010002029EB0000EDEA000061EB000079
:10101000EDEA0000EDEA0000EDEA0000EDEA000074
:10102000EDEA0000EDEA0000EDEA000065EA0000EC
:10103000EDEA0000EDEA0000EDEA00004DEA0000F4
:10104000A5EA0000A5EA0000A5EA0000A5EA000064
:10105000A5EA0000A5EA0000A5EA0000A5EA000054
:10106000A5EA0000A5EA0000A5EA0000A5EA000044
:10107000A5EA0000A5EA0000A5EA0000A5EA000034
:10108000A5EA0000A5EA0000A5EA0000A5EA000024
:10109000A5EA0000A5EA0000A5EA0000A5EA000014
:1010A000A5EA0000A5EA0000A5EA0000A5EA000004
:1010B000A5EA0000A5EA0000A5EA0000A5EA0000F4
:1010C000A5EA0000A5EA0000A5EA0000A5EA0000E4
:1010D000A5EA0000A5EA0000A5EA0000A5EA0000D4
:1010E000A5EA0000A5EA0000A5EA0000A5EA0000C4
:1010F000A5EA0000A5EA0000A5EA0000A5EA0000B4
:10110000A5EA0000A5EA0000A5EA0000A5EA0000A3
:10111000A5EA0000A5EA0000A5EA0000A5EA000093
:10112000A5EA0000A5EA0000A5EA0000A5EA000083
:10113000A5EA0000A5EA0000A5EA0000A5EA000073
:10114000A5EA0000A5EA0000A5EA0000A5EA000063
:10115000A5EA0000A5EA0000A5EA0000A5EA000053
:10116000A5EA0000A5EA0000A5EA0000A5EA000043
:10117000A5EA0000A5EA0000A5EA0000A5EA000033
:10118000DFB506AF044605F03FFCD4E9102300208C
:10119000C4E9100042B1012084F87D00D4E90014B4
:1011A000246A009001A8A047DFBD034690429EBF7D
:1011B00008461946704780B56F46184611460CF030
:1011C00086F9FEDE80B56F46814208D399429FBF03
:1011D0000244091A104680BD11F00AFAFEDE0CF036
:1011E00071F9FEDEF0B503AF2DE900078AB00646BF
:1011F000387B14460D460028019340F0A18083B34C
:10120000012B39D1D6E912A80020C6E91200BAF1A3
:10121000000F00F09580002C00F0A18095F800C030
:1012200096F87E00D6F85090BCF1080F86F87EC084
:1012300032D0BCF10A0F05D0BCF17F0F2CD0BCF12D
:101240000D0F3AD10D2818BF0A2801D1604550D1A1
:101250004E49012086F880003046022205F07EF9D2
:101260006CE000204F490790CDE904000120039075
:101270004D48069102900BE00120079008A910F05C
:10128000ECFF4A4802904A480591099001A808904D
:1012900002A80EF0A7F853E0B9F1000F4ED039497B
:1012A0003046032205F05AF9A9F1010040455AD20F
:1012B00000210AF80010306540E0A8F101008145E6
:1012C0003CD24FFA8CF0B0F1FF3F37DD96F87C004E
:1012D00098B1D6E907210020C6E907000AB3706A71
:1012E00088424AD202F800C00130C6E90721706284
:1012F00017E0002086F87E0020E00120D6E9001EDD
:10130000D6E9052386F87C000020C6E9050042B135
:10131000ABB382F800C00120DEF810C0009002A834
:10132000E047C14521D228780AF8090009F10100F7
:10133000306540451CD200210AF80010C6E912A809
:101340000120D6E9001286F87D002346166A2A4657
:10135000009002A8B0470AB0BDE80007F0BD104AEF
:101360000020002106E0084A03E00B4A484600E05E
:101370000A4A41460CF08AF8FEDE054AFAE7054AB9
:10138000EEE700BFD42E0100D82E010064730100E7
:101390005438010044380100E82E0100F82E010005
:1013A000C42E010014920100BC2E0100902E0100F9
:1013B00051D00000F0B503AF2DE9000FADF51B7D56
:1013C00083460020DBE907698BF87C00CBE9051236
:1013D000CBE90700DEB3DBF82480B8F1000F34D08E
:1013E00000204446CBE90500904515468A4608464C
:1013F00088BF14461146224601F0E3FCCDF824B024
:1014000083460891204631464A46FFF7CEFE024603
:10141000DFF80C0700900B465846DDE9081B0CF07E
:101420004DFA012052468BF87C00A8EB0400CBF863
:1014300024002B46DBE90010D0F810C000941DA852
:10144000E047CBE9076984B901E0CBE90769DBF83C
:10145000280070B10BF12C0C1D901DA99CE879009F
:101460000A1D79C2584605F0DDF80DF51B7D10F018
:10147000D5BD9BF880000028F7D0DBE91282002060
:101480008BF88000B8F1000FCBE9120041D00020AA
:10149000CDE90A82824200F0C28018F800100130C3
:1014A0000029F7D1013800F0BA8041460892FFF7D1
:1014B0007CFE02460B460CA811461A460CF052FF61
:1014C0000C98CDF824B030B31DAC10F0D4FF01203F
:1014D0001C900FA91B910021CDE91801DFF84406EB
:1014E0001A911790DFF84006DFF8401610900AA80E
:1014F0000F9017AA20460CF03DF91D99201D01F010
:1015000059FC02460B46584611461A4605F026F885
:1015100083E0002290E0DDE90D4000211F912618B4
:10152000CDE91D40CDE920461DA800F1080907942A
:1015300048462546B34604F0BDFDDDE92046B1F539
:10154000881F0CD08246084601F0B4FB0028EFD17A
:10155000ABEB050050442044A0EB060B03E04FF03A
:10156000000A4FF0000BDDF87C90B44236D03546CF
:1015700016F8010D41B2B1F1FF3F27DC2E4616F8F7
:10158000022D50B210F1400F10DA2E4616F8032D3E
:1015900053B213F1400F0CDA2E4603F03F0216F857
:1015A000043D03F0070342EA831204E002F01F0047
:1015B00005E002F00F0200F03F0040EA821001F067
:1015C0003F0141EA8010B0F5881F07D001F072FB9F
:1015D0000028CAD1A9EB040000EB050B079DABEB7B
:1015E0000A09DFF84C25042305EB0A044946204686
:1015F00001F019FB70B3099D2122DFF8A415DFF873
:1016000088452846A047DFF8481528461422A047F9
:10161000DFF8401528463222A047DDE9082B0020DC
:10162000B8F1000FCBE9120008D0002A00F0718257
:10163000002088F800004046CBE912020020CBF8D9
:101640005000DBF8280000287FF40FAF584605F063
:10165000DBF90AE7DFF8DC2411F075F8002853D035
:1016600001202294ADF8900000202190CDE91D09C1
:1016700005EB0B000DF1740B2390CDE91F49584683
:1016800001F08BFB0028C8D0CDE915010BF1040552
:101690000998406DD0E9011001F1040AC600002E3E
:1016A000BBD05AF8049CB9F1000F29D0DAF80040F9
:1016B0004846216C8847DDE9152301F069FAF8B145
:1016C000616B4846884758464FF4FC7111F0D0FAD8
:1016D0000120DFF858141C900FA81B9010F098FC04
:1016E000DFF8B8041790DFF87404109015A80F9075
:1016F00017AA58460CF03EF81D99284610F07FFDB9
:10170000083E0AF1080ACAE7DFF82C2411F016F89F
:1017100000283FD010F0B1FC1DA801F03EFB0028CE
:101720003FF47BAF10F0DDFD002E3FF476AF54F8B0
:1017300004ACBAF1000F2AD025685046296C8847BE
:101740005A464B46CDE9150101F022FAF8B1296B52
:10175000504688471DAD4FF4FC7110F07BFD012011
:10176000DFF8C8131C900FA81B9010F051FCDFF895
:1017700028041790DFF8E403109015A80F9017AA1B
:1017800028460BF0F7FF1D99079810F038FD083E2A
:101790000834C9E7DFF8A42310F0D5FFE8B310F050
:1017A0006CFC1DA801F0F9FA00283FF436AF10F0E8
:1017B00098FD002E3FF431AF54F804ACBAF1000F9D
:1017C00028D025685046296C88475A464B46CDE9B3
:1017D000150101F0DDF9E8B1A96B504688471DAD50
:1017E0004FF4FC7110F036FD0120D0491C900FA879
:1017F0001B9010F00DFCDFF89C031790D748109059
:1018000015A80F9017AA28460BF0B4FF1D9907984A
:1018100010F0F5FC083E0834CBE7C94A10F08EFF03
:10182000E8B1099D2422D749D74C2846A047D7497B
:1018300028461B22A047D64928461B22A047686D90
:101840000023D0E90110C20000201AB351F8084B60
:101850005D1C002C1CBF2B462846083AF5E7B94A08
:1018600010F067FF20B3099C0DF174094FF4FC716F
:101870004846656D11F0FCF9D5E90110C200002061
:10188000002A00F0838051F8083B002B18BF01307C
:10189000083AF5E70128FFF6C0AE1F904FF0FF3081
:1018A0001E9008201D901DA9099804F0BBFEB4E607
:1018B000A54A20464946072301F0B5F9002800F063
:1018C000E98010F0DAFB1DA801F067FA0028079103
:1018D0003FF4A3AE8146099800F12C0105911DA9A2
:1018E000406D04310691D0E901A001210AEBC00648
:1018F000B2453FF492AE54465AF8085B002DF7D03B
:10190000C807F5D060680490016C28468847079B9B
:101910004A4601F03DF9012104F1080A0028E7D008
:101920000DF1740B4FF4FC71584611F0A1F9099CAC
:101930005B46049AD4E90301D1F80CC08C490091AC
:10194000002101912946E04703908B461D99069896
:1019500001F030FA02460B461146204610F011FD08
:101960000398012810D104982946C26817AC204674
:101970009047099D07200599A862204690E81C0021
:1019800001201CC1C5E90E0B0021B1E779490026F1
:10199000109115A9159001200F911C900FA81B9074
:1019A000022018907448614917904846CDE919669D
:1019B00017AA0BF0DFFE1D9909F10400834601F020
:1019C000F9F902460B461146204610F0DAFCD5E93B
:1019D00001901D9609EBC00AD1450CD059F8080BAF
:1019E0000028F9D059F8041C896A8847C0B2022837
:1019F00038BF0136F0E75F480DF1540A109001201E
:101A000015960026CDF83CA01C900FA81B90022034
:101A100018905A484549CDE9196617901DA817AA8C
:101A20000BF0A8FE1D99584601F0C4F9DDF824908A
:101A300002460B4611461A46484604F08FFDD5E98A
:101A400001401D9604EBC005AC420AD054F8080BC7
:101A50000028F9D054F8041CD1F8DC10884706445B
:101A6000F2E7444815963149CDE90FA001201C90BA
:101A70000FA81B9010F0CCFA414817901DA817AA88
:101A80000BF078FE1D99584601F094F902460B467A
:101A9000484639E52D4A10F04CFE80B31DAC10F0DD
:101AA000EAFC03202F49149017A813900020CDE9D9
:101AB00011000420109028480F9028481C9015A869
:101AC0001B902748CDE918011A90274817900D2040
:101AD00016902648154915900FAA20460BF04AFE8D
:101AE0001D99201D01F066F9099C02460B4611461E
:101AF0001A46204604F032FD0120A0628DE5099CC3
:101B000014221349204604F029FD124920463222AE
:101B1000FCE4244A002000210BF0B8FCFEDE00BFEC
:101B200084380100D0380100D1BC0000A438010085
:101B3000F8380100D339010050390100D8390100CB
:101B400038390100373A0100AC3A0100B33A0100DC
:101B50008D390100A1390100BC3A010039D70000DC
:101B60009DE80000B6830100B483010028660100EF
:101B7000143B010051D00000503A0100743A0100BA
:101B80009C3A0100DD3901005D650000013A010069
:101B90001C3A0100343B0100E83A0100043B01001B
:101BA0006C39010094380100F0B503AF4DF804BD65
:101BB00086B082684FF4A26340F24314B3F5A66F77
:101BC0001DD0D55801340433AD07F7D1A4F5A27365
:101BD000072B24D8467CC9B2057C05EB46154FF48B
:101BE0007C5606EA052545EA014101F1011142F85A
:101BF0002410012180689940C0F804130CE00020F3
:101C00000A490590CDE902000120019008480090A2
:101C1000684604910DF0E6FB06B010F017BA024AD0
:101C2000184610F03FFBFEDE8C910100149201007B
:101C300084910100B0B502AF417C4FF4A264027CF4
:101C400040F2431302EB411182680902B4F5A66F1A
:101C500013D01559013304344D4015F47C5FF5D190
:101C6000A3F5A271072909D8002442F823400122D4
:101C700002FA01F18068C0F80813B0BD024A0846B4
:101C800010F010FBFEDE00BF9C910100F0B503AF29
:101C90004DF804BD8AB001AB91E870001A4670C2DD
:101CA000D0E9041204A801F0DCFE10F055FB02D0CC
:101CB0009DF811000EE010F006FA01A810F049FBA3
:101CC00010F0ECFA08D1F26804A82146904710F011
:101CD000CFF9062010F002BA0020054910F0A1F952
:101CE00004480549049004A80BF068F9FEDE00BF23
:101CF00014920100748701007C870100F0B503AFE6
:101D00002DE9000F8FB08A468346D2B15546D7F8E9
:101D10000C8055F8180F1446002843D00593D5E9D8
:101D2000011606AA43C2DAE9041209A806AB01F0BB
:101D300098FE9DF82490B9F1000F08D09DF8250079
:101D40002AE0DAF808100520CBE900017AE0DDE9A5
:101D50000A100D9AD0F8A030CDF810B08B4601963D
:101D6000029006A8039298479DF8180000286CD1AD
:101D7000029E5946F26809A89047D6F8A820039910
:101D8000D8F80800009058469047DDE90010DDF8CB
:101D900010B0081A10F059FB059B00F0010050EA42
:101DA00009001BD098E80700012C07C518D0022CA9
:101DB0002ED0032C3BD1DAF80800984239D9DAF852
:101DC0000000002101230268C2F80013026853607A
:101DD000026853600068C0F800152BE009202EE06F
:101DE000DAF80800984229D9DAF8004020460EF0C7
:101DF000CFFC2068012181600520CBF8000020681D
:101E0000D0F80004013810F020FBCBF8040019E0F2
:101E1000DAF8080098420CD9DAF8004020460EF0B3
:101E2000B7FC20680421C0F80013002102E00A205A
:101E300005E0062158460AF046F803E00620002196
:101E4000CBE900100FB010F0E9B80020044910F001
:101E500050F904480449099009A80BF0AFF8FEDED8
:101E600014920100748701007C870100F0B503AF74
:101E70004DF804BD8AB001AB10F028FC04A801F0B5
:101E800083FD10F069FA02D09DF811000EE010F009
:101E90001AF901A810F05DFA10F000FA08D1F26802
:101EA00004A82146904710F0E3F8062010F016B978
:101EB0000020054910F0B5F804480549049004A82D
:101EC0000BF07CF8FEDE00BF149201007487010065
:101ED0007C870100F0B503AF2DE9000FB3B0834656
:101EE000052A0ED899460D46FE68DFE812F0060076
:101EF0000F004A009E00EC003E010420CBF80000D9
:101F000043E10A200021CBE900103EE1CDE9016563
:101F10004FF0000955F8041FDFF8EC35D1E9012135
:101F2000CDF80CB002EBC1011F931E91CDE91C52FC
:101F30001CAE0AA8314600F0E1FC0A9C002C00F01F
:101F40002781DDF82CB02146DDF834A0DBF8A03085
:101F500016A8524698479DF85800002840F0BE82C7
:101F6000DBF80C202146DDF85C8022A89047DBF8E6
:101F7000A8202046514698F82450904749EA050980
:101F8000D7E7D5F800800AAB10F006F922A801F0D7
:101F9000FBFC10F085FB40F0F380DDE923A4D4F8CE
:101FA000A030DDE92565CDF80CB00AA851462A46D7
:101FB00098479DF82800002840F09082DDF82CB06A
:101FC0006FF00702DBF80000CDE9106A1294C0F34D
:101FD00007410F91C0F307210D91C1B200BA0B91D7
:101FE00010F0A0F90BF104020A9210440C9008447E
:101FF0000E90E26822AE5146304690479BF824008E
:10200000002800F026819BF82500810705D00328D1
:1020100040F0488100208BF825009BF8260000281E
:1020200000F07F812E4603203EE1D5F800901CABE6
:1020300010F0B2F822A801F0A7FC10F031FB40F03C
:102040009F80DDE923A6D6F8A030DDE925581CA83D
:102050005146424698479DF87000002840F03E8265
:102060001D9C6FF00703204610F0DDF92792C1F3A5
:1020700007222592CAB209BACDE9285ACDE922022F
:102080000FF0D6FF2490104426902A965146F2680D
:102090001CA89047214611F8240F002800F0DC808E
:1020A00094F8250000F00302012A05D0032840F02F
:1020B0001081012084F8250094F82600002800F003
:1020C0004081032006E1D5F800800AAB10F064F8E7
:1020D00022A801F059FC10F0E3FA51D1CDF80CB070
:1020E000DDE923BADAF8A030DDE925650AA859460A
:1020F0002A4698479DF82800002840F0EF810B9C65
:102100006FF00703204610F08EF90F92C1F30722FB
:102110000D92CAB209BACDE9106BCDE90A020FF0EF
:1021200087FF0C9010440E90CDF848A05946DAF87D
:102130000C2022A89047214611F8240F002800F017
:102140008D8094F82500039E00F00302022A05D03A
:10215000032840F0D380022084F8250094F826005C
:10216000002800F0F7800321C9E0D5F800A00AABF1
:1021700010F012F822A801F007FC10F091FA1CD020
:102180009DF88910584609F094FE33B00FF046BF11
:10219000029C3046019DD4F800A095E80E000EC0C8
:1021A0003346D4E9021222A801F0EEFB10F078FACF
:1021B00036D09DF889100398E5E7DDE92356DDF870
:1021C0009880D6F8A0300AA82946424698479DF83C
:1021D0002800002840F08281F26829460B9C22A842
:1021E0000295904794F82400E0B394F82610032257
:1021F000C9B3B9F1000FA4F8252000F0C4805046FF
:10220000494604F015FD04465046494604F07EFD5B
:10221000002C40F0DD80002840F0DA80022222E02D
:10222000DDE92346DDF89880D6F8A0301CA82146C9
:10223000424698479DF87000002840F04F81F268B0
:1022400021461D9D22A8904795F82400B8B103218E
:102250001AE02E46052027E005203BE0052100205E
:10226000039E4DE00522002122ACCDE90A1202981E
:102270004146D6F8A820904708340AA936E0B9F1BB
:10228000000F00F0A78002210020D6F8A820CDE999
:1022900022012046414690470AA822A910F0AAF838
:1022A000039D12E02E4606200021DDE91423CDE92E
:1022B0002423D4F8A820CDE9221050463146039DAE
:1022C000904716A822A910F095F894E80F000FC5C2
:1022D0005BE706200021D6F8A820CDE91C10504667
:1022E000414690470AA81CA900F10804204600F0C6
:1022F00073FD94E80F008BE80F0046E706210020ED
:10230000DDE91C2322AC0FC458462946DAF8A82080
:10231000904704A822A910F06DF894E80F000FC6AA
:1023200033E71CA80AA900220DF01AF99DF87000E5
:1023300000285AD00021304622912E4600F1080193
:10234000AEE0012084F8260022AA484604F080FB73
:102350000421C0E7012084F826000AAA404604F0C0
:1023600077FB94F82600002800F0B0801CA80AA98A
:10237000002200240DF0F4F89DF87000002865D0CC
:10238000229422AC98E0B1460AF5CC76CDF80480D0
:1023900000244FF00008CDF80CB0322C0FD056F8C6
:1023A0002410504604F044FC56F8241005465046CC
:1023B00004F0ACFC2843323448EA0008EDE75FEA59
:1023C000C870DDF80CB0DDF804804E463FF426AF4F
:1023D000042149E7504606F05BFF504606F046FFF1
:1023E000012085F8240004204FE71F99002952D0CE
:1023F0001D9802901E980190219B209A0FF0F6FFE5
:10240000002848D02E4622AD40210FF023FF01992D
:102410002A46029800290CBF012009460DF020FB36
:1024200004A841462A464B4604F0A6FB0499081F1F
:1024300005289CBF01208BF8260005AB0DCBCDE90C
:10244000142301222392002222922EE71F9979B3AE
:10245000DDE92023D1E90101DDE91D640DF08AFAEF
:1024600030B322A8402110F003FC002C0CBF012641
:102470002446304622AE214632460DF0F1FA16A827
:10248000414600F1080432464B46204604F074FBF6
:10249000002022900FE03146002008312E46229085
:1024A000D1E900120120CDE9141222992390FCE613
:1024B0000020229022AC039E0120D4E90212239036
:1024C0002068CDE91412011F052901D8042017E75F
:1024D0006168DDE91423CDE91C2311E700200749D9
:1024E00027902691259024900120239004480549A7
:1024F000229022A80AF062FDFEDE00BF14920100C5
:10250000748701007C870100A7FB0000F0B503AFD2
:102510002DE9000B8EB00C46816961B1D0E907232B
:102520000BAD0EC5D0E9041202A80BAB01F099FA6D
:102530009DF8080010B10EB00FF0A7BE0DF10C0908
:10254000DDF8188099E860024246D6F8A0300BA862
:10255000294698479DF82C00C8B90C986FF00703DE
:10256000CDE908950FF097FD0BA82946904710F08C
:1025700016F902A8224610F0CDF8D6F8A820284671
:1025800041460EB0BDE8000BBDE8F040104700200A
:1025900004490FF0C7FD04480449029002A80AF05C
:1025A0000DFDFEDE14920100748701007C8701009E
:1025B000F0B503AF2DE9000F95B00D4600926BB159
:1025C000BC68002C57D01A4628460099234615B0FF
:1025D000BDE8000FBDE8F04004F0A8BB50F8041FB0
:1025E0002B4BD1E901210FF08FFE12AE05A801A9F6
:1025F00000F084F9059C84B3DDE906AB3046DDF8D4
:1026000020802146DAF8A030424698479DF84800DD
:1026100030BB13986FF00703CDE90FB4CDF844A099
:102620008146043059F8241B0990C1F3074210F089
:102630001DF80A920FF0EDFEDAF80C200D9010F064
:1026400093F8009909AB28464A4604F06FFBDAF884
:10265000A820204641469047C8E715B00FF0DEBCE1
:10266000002008490FF045FD0A480B49099009A8C8
:102670000AF0A4FCFEDE002002490FF03AFD0248F9
:102680000249F3E714920100AC2F0100D02F0100A2
:10269000A7FB0000748701007C870100F0B503AF41
:1026A0002DE9000F91B0096861B18878002845D004
:1026B0004878C11E18BF0121002818BF012001EA77
:1026C00000053CE050F8041F0DF1140A0DF1040B55
:1026D000244BD1E9012100250FF016FE5046594642
:1026E00000F00CF9059E56B3DDF818803146089CC1
:1026F000D8F8A03009A8224698479DF8240028BBA6
:10270000D8F80C203146DDF828900BA8904799F8AE
:10271000240070B199F8260050B199F82500C11E27
:1027200018BF0121002818BF012001EA000500E0C0
:102730000025D8F8A82010F017F8CFE70025E8B258
:10274000002818BF012011B00FF068BC0020064916
:102750000FF0E8FF054806490B900BA80AF02EFC85
:10276000FEDE00BFA7FB0000149201007487010089
:102770007C870100F0B503AF2DE9000F95B050F84C
:10278000041F0DF1040A384BD1E901210FF0BCFD03
:1027900012AE05A8514600F0B1F8059C002C4BD0B4
:1027A000DDE906B93046089D2146DBF8A0302A460F
:1027B00098479DF84800002841D1DDF84C806FF023
:1027C0000702CDE90F94CDF844B0D8F80000C0F36B
:1027D00007410E91C0F307210C91C1B200BA0A91D2
:1027E0000FF0A0FD08F1040209921044DBF80C2060
:1027F0000B9008440D900FF0B7FF98F82400A8B193
:1028000098F8260090B198F8250040F002000328BF
:102810000CD003200021A8F825000020009009A872
:1028200000220FF077FFC1B2032913D1DBF8A820F3
:10283000204629469047ACE715B00FF0EFBB0020CB
:102840000A490FF056FC0A480A49099009A80AF0FB
:10285000B5FBFEDE8DF8480012A90748074A084B71
:102860000BF0C2FFFEDE00BFA7FB000014920100C8
:10287000748701007C870100D18601009C30010033
:10288000E02F01008A4284BF501A70472EBF0020FB
:10289000511A08447047D4D4F0B503AF4DF804BDC5
:1028A0004368CBB10446D0E90250421CB2FBF3F6B8
:1028B00006FB1326B5420AD0984213D200EBC000A3
:1028C000226802EB8000242210F09EF9E660A81B2B
:1028D00018BF01200FF0BABB06483921064A0AF09A
:1028E000BFFDFEDE024A19460AF0D0FDFEDE00BF43
:1028F000447301001030010034730100F0B503AFE0
:102900002DE9E00F0FF015FC584509D00FF05CFDE4
:1029100020B10FF0B4FC0FF053FC04D14046F3E7B4
:102920000FF0EBFC01E00FF077FC0FF022BED4D4E7
:1029300080B56F4696B00068484B0068D0F8042117
:102940009A4228D0B2F1413F18BF12F1BE3F22D0C7
:10295000434B9A421CBF434B9A421CD0424B9A4273
:102960001CBF424B9A4216D0414B9A421CBF414B6E
:102970009A4210D0404B9A421CBF404B9A420AD018
:102980003F4B9A421CBF3F4B9A4204D03E4B9A4267
:1029900018BF4FF0FF321192D0F800213B4B9A4202
:1029A0001CBF3B4B9A4204D03A4B9A4218BF4FF09F
:1029B000FF321292D0F80821A2F50052052A9ABFE0
:1029C000354B53F822204FF0FF321392D0F80C21F0
:1029D000B2F5807F18BF202A07D0402A18BF802A6E
:1029E00003D0102A18BF4FF0FF321492D0F8100114
:1029F000B0F5006F18BFB0F5807F09D0B0F5007F4B
:102A000018BFB0F5806F03D0802818BF4FF0FF309B
:102A1000224A109215AA0F92214A0E9214AA0D92E0
:102A2000204A0C9213AA0B921F4A0A9212AA0992E8
:102A30001E4A089211AA159005200792069007AA2F
:102A400005920022CDE9020219480190D1E9060160
:102A5000049201AA0AF05EFF16B080BD41414143D5
:102A60003042414141424141424241413043414172
:102A7000414341414243414130444141304541415C
:102A800041424241414141423041414140280500DB
:102A90003328050032280500B89301006D120100AB
:102AA000011201008911010039110100A10F01007B
:102AB00054880100F0B503AF4DF8048D8EB0D1E914
:102AC00006450C22EB682849D0F80080204698473C
:102AD00008B1012643E0D8F8080038B1012601907A
:102AE0000FF0DDFC21480890214811E0D8E9006092
:102AF000C168304688471F4A51401F4A504008432A
:102B00000FD1019601260FF0CAFC184808901B4807
:102B1000039001A8029008AA204629460AF0FAFE6E
:102B2000E8B90321D8F80C00079108AA0692002200
:102B3000CDE90312059200F10C02114902911149ED
:102B40000D91CDE90B1200F108010A910E49CDE972
:102B5000080102AA204629460AF0DCFE0646304655
:102B60000EB00FF00FBB00BF28510100385101001B
:102B7000DDE70000C73DAEB80BF2B922E3E7000085
:102B80000051010051D0000039D700000BF044B8CB
:102B9000FFF7FCBFDCB504AF0FF005FE01A910463E
:102BA00000F056F80FF087FB09F0A0FD0020DCBD17
:102BB000DCB504AF0FF0F7FD01A9104600F048F8AE
:102BC0000FF079FB06F028FD0020DCBDF0B503AF67
:102BD0004DF804BD88B0019002AA91E878501046E3
:102BE000044980E8785001A80AF0C4FD08B05DF8F7
:102BF00004BBF0BD4C300100F0B503AF4DF804BD8F
:102C000088B0019002AA91E878501046044980E803
:102C1000785001A80AF0AEFD08B05DF804BBF0BD25
:102C2000643001007047B0B502AF15460A469942BC
:102C300001D20020B0BD014618461C46FEF7B5FA89
:102C400002460B4628462146BDE8B040FFF79EBF2E
:102C5000802802D20870012228E00222034662F393
:102C60009F13B0F5006F05D24B70C02343EA90105C
:102C700008701BE0B0F5803F0AD28B70E02343EA76
:102C80001033800962F39F100B70487003220DE02F
:102C9000CB70F02343EA90430B708309000B62F37F
:102CA0009F1362F39F1004228B7048700846042122
:102CB00000F087B8F0B503AF4DF804BD202803D06D
:102CC000A0F10901052902D201200FF0BFB9802827
:102CD00015D3294AC502002304240421A34210D29B
:102CE00003EB510152F82160B5EBC62F01D94B1C03
:102CF00003E0F602AE4205D00C46E11AEEE70020F2
:102D0000E3E71946A34238BF013103292CD8032930
:102D10000FBF152402EB81035B685C0D012901D212
:102D2000002306E04B1E042B21D252F823306FF310
:102D30005F5352F82110C21A601E134C490D002334
:102D4000884208D0142909D8655C2B44934201D8E5
:102D50000131F5E7084600F00100B6E7094A0846E8
:102D600015210AF093FBFEDE044A084601E0044AFE
:102D700018460421F5E700BF28320100E85B010096
:102D8000085C0100F85B01007F5F0100D1E90123CD
:102D90001A44101A20F07F407047D0B502AF0446A5
:102DA00004F02EFA18B1204604F02AFAD0BD002112
:102DB0000020D0BD0246084611464FF4FA72FEF7D5
:102DC000F4B9D0B502AF04460B46114600202246A6
:102DD000BDE8D040FEF7F6B9B0B502AF0A68122AD6
:102DE0001EBF91E83C003CC0B0BD03482B21034A04
:102DF0000AF036FBFEDE00BFA68601008C870100CC
:102E000000B1704780B56F4602480A460FF0B9FC22
:102E1000FEDE00BFA6860100F0B503AF4DF804BD8D
:102E20008CB0018808291FD090E86C006C462146C0
:102E30000F486CC10025012608900E480995CDE980
:102E400006550596049004A80CF0CCFA09960AA839
:102E5000CDE90565CDE90750074804900748CDE95D
:102E60000A4004A80CF0BEFA0CB00FF0EFB800BF97
:102E7000149201006C4D0100F4730100E1010100A6
:102E800080B56F460068FFF793FE002080BD80B5D7
:102E90006F460068FFF77EFE002080BDF0B503AFEF
:102EA0004DF8048D86B00068EC4691E874416346A5
:102EB000614683E87441FFF79FFE06B05DF8048B1E
:102EC000F0BDF0B503AF4DF8048D86B00068EC4658
:102ED00091E874416346614683E87441FFF776FEEA
:102EE00006B05DF8048BF0BD80B56F46006809F050
:102EF000FDFB002080BD80B56F46006806F08CFBAE
:102F0000002080BDF0B503AF2DE9000FA3B0D1E9DB
:102F100006A80DF1300B06680025794801241090B1
:102F2000414678485A460C9050461195CDE90E55C9
:102F30000D940AF0EFFC002840F0CD8006F1E00986
:102F400006A8002104300290CDF804904E4500F010
:102F5000C68005913268D6E9010C012A04910ED190
:102F6000F27ECDE9060C02F0070208920396DFE834
:102F700002F0041C2024282A2E326C4A28E01194E6
:102F800019A8109002200D9041465F485A460C90B7
:102F90005E48CDE90E551A9005A8199050460AF0E2
:102FA000B9FC002800F0928094E05F4A09920E225A
:102FB00014E05C4A0992142210E0594A099209224D
:102FC0000CE0564A04E0544A0992162206E0514A9F
:102FD0000992082202E04E4A09920D22CDE90A2008
:102FE00006221E926044CDE91C2B4146504AD94628
:102FF0001B9207221A9256464E4A19924E4A17922F
:1030000008AA16924D4A159209AA1492029A3F4BA9
:1030100012924B4A1393119221ACCDE90F240BAAC3
:103020004446CDE90D3205AA219050460C9219AACA
:103030000AF070FC00284DD107984FF000080025D9
:103040004FEAD00A039890F819B0082D36D00B98A3
:10305000189508EB00011F91D0443A494044209054
:1030600004201E90CDE91C09CDE91A0136481990BB
:103070003248139021A812903148119020A9CDE92F
:103080000F011FA80E9021480D9018A80C90012048
:10309000A8402E4910EA0B004FF0080008BF072097
:1030A00022902B4808BF0846219019AA3046214695
:1030B0000AF030FC01350028C7D00BE0B246CB4601
:1030C000039EA046DDF804900124002504991C36D7
:1030D00001313BE70124204623B00EF09FBF0020C2
:1030E00007491190CDE90E0001200D90194810916B
:1030F00041460C900CAA50460AF00CFC0446EAE744
:10310000149201007C3401001835010051D00000F8
:1031100028350100A734010035350100F7340100DE
:103120004B3501005435010068350100CF340100F2
:10313000C03501008835010039D9000039D70000B9
:1031400071D90000BC36010094360100B43601008C
:10315000D73401003C370100B0B502AF00234B600B
:10316000026814461CB1254664682B46FAE70BB189
:10317000181D00E04A600160B0BDF0B503AF4DF826
:1031800004BD0EF039FF5DF804BBF0BDF0B503AF30
:103190004DF804BD8E1801D300200DE00D46044605
:1031A00000F00CF801460020A94205D8D4E96112CC
:1031B00011448E4298BF01200EF048BFD0B502AF37
:1031C000D0F884410EF0EAFE2044D0BDF0B503AF44
:1031D0004DF804BD90F8B03204460020EBB1D4E9BC
:1031E0005E6384F8B002711A022A98BF022252422A
:1031F00001EA0205AB420DD8AE4206D304F5E672F1
:103200001846294602F0E8FB08B1002002E02846F3
:10321000C4F87851012184F8B0120EF017BFD4D44D
:10322000F0B503AF2DE9000F9FB02C4911B100BFDD
:103230000139FBE711904FF00108DFF84405002643
:10324000DFF84445022517900DF1740ADFF83405C4
:10325000CDF87080CDF86CA0CDE9196618951E9058
:1032600011A81D9017A92046FFF7C6FCCDF8708065
:103270000DA8CDE91856CDE91A60DFF810051790B2
:10328000DFF80C05CDE90DA00D201E90DFF8040538
:103290001D9017A92046FFF7AFFCA06A00B3017983
:1032A000A9B1026800210171146911610121017144
:1032B0006CB1D4E90201884209D0DFF8CC044E2277
:1032C000DFF8D41406F0A8F9204600F01DFBDFF863
:1032D000B8044C22DFF8C41407E000BF400D03001F
:1032E000DFF8A4046B22DFF8B81406F095F9DFF8D4
:1032F00098044068002800F00682DFF8A814002631
:103300004FF001081C96D1E90140D1E90321119247
:103310000D9104F0010107F84F1CE1B2CDE90F4017
:10332000C4F3802BC1F3400207F84E2CC1F3C00256
:1033300007F84D2CC1F30012C1F3401107F84B1CE4
:10334000C4F3002107F84A1CC4F3402107F8491CC4
:10335000C4F340310491C4F3C02907F8451CC4F3F9
:1033600000410591C4F300358DF85410C4F3404179
:10337000069107F8431CC4F38041079107F8421CEB
:10338000C4F3C041089107F8411CC4F300610991DE
:103390008DF85810C4F340610A9107F83F1CC0F340
:1033A0004001C0F380700C9007F83D0CDFF8F80383
:1033B0001B90DFF8F8031790DFF8CC038DF84C2052
:1033C0008DF850B007F8479C07F8465C0B9107F85A
:1033D0003E1CCDE91966CDF8608017A9FFF70CFCFB
:1033E00017F84F0C98B10220CDE91BA81890DFF810
:1033F000C0031790DFF8BC031E90A7F14F001D908B
:10340000DFF88403CDE9196617A9FFF7F5FB17F874
:103410004E0C78B10EF0E7FDDFF89C031790DFF853
:1034200094031E90A7F14E001D9017A9DFF85803D2
:10343000FFF7E2FB17F84D0C0DF1340878B10EF0F0
:10344000D2FDDFF878031790DFF868031E90A7F12C
:103450004D001D9017A9DFF83003FFF7CDFB9DF855
:103460004C0068B10EF0BFFDDFF854031790DFF891
:1034700044031E9013A81D9017A9C348FFF7BCFB77
:1034800017F84B0C68B10EF0AEFDDFF8380317905B
:10349000C8481E90A7F14B001D9017A9BA48FFF726
:1034A000ABFB17F84A0C60B10EF09DFDC6481790B3
:1034B000C0481E90A7F14A001D9017A9B248FFF717
:1034C0009BFB17F8490C60B10EF08DFDBF481790BB
:1034D000B8481E90A7F149001D9017A9AA48FFF708
:1034E0008BFBBBF1000F0BD00EF07DFDB8481790A1
:1034F000B0481E9014A81D9017A9A348FFF77CFBA5
:10350000B9F1000F0CD00EF06EFDB2481790A9482B
:103510001E90A7F147001D9017A99B48FFF76CFB71
:10352000002D11AD0CD00EF05EFDAB481790A148F8
:103530001E90A7F146001D9017A99348FFF75CFB6A
:10354000049860B10EF04FFDA448179099481E9062
:10355000A7F145001D9017A98B48FFF74DFB059873
:1035600058B10EF040FD9E48179092481E9015A845
:103570001D9017A98448FFF73FFB069860B10EF035
:1035800032FD984817908B481E90A7F143001D907C
:1035900017A97D48FFF730FB079860B10EF023FDB7
:1035A0009148179083481E90A7F142001D9017A9DB
:1035B0007548FFF721FB089860B10EF014FD8B48A9
:1035C00017907C481E90A7F141001D9017A96E48E6
:1035D000FFF712FB099858B10EF005FD84481790CB
:1035E00074481E9016A81D9017A96748FFF704FBA2
:1035F0000A9860B10EF0F7FC7E4817906D481E9057
:10360000A7F13F001D9017A95F48FFF7F5FA0B9847
:1036100060B10EF0E8FC7848179066481E90A7F15C
:103620003E001D9017A95848FFF7E6FA0C9804F0E1
:10363000800660B10EF0D7FC704817905D481E9070
:10364000A7F13D001D9017A94F48FFF7D5FA04F4E4
:10365000004486B101201C90CDE91A0A68481990EF
:1036600002201890674817906748CDE91D5017A9A8
:103670004548FFF7C1FA84B101201C90CDE91A0A30
:103680005F48199002201890604817905E48CDE975
:103690001D8017A93C48FFF7AFFADDE90F1008437A
:1036A0000CD1002040491C90CDE919000120189050
:1036B0005948179034481B9117A922E0324C012534
:1036C000DFF83C814FF0020951484F4E1C95CDE97F
:1036D0001A5ACDF86480CDF8609017901E960FA806
:1036E0001D9017A92046FFF787FA4A481C95CDE997
:1036F0001A5ACDE9189817901E9610A81D9017A970
:103700002046FFF779FA2048D0F808A0BAF1000F58
:1037100032D0254800211B90012018903F48179077
:1037200019481C91CDE9191117A9FFF765FADFF8BF
:10373000F0804FF000093B4CDFF84CB0B9F1080FB6
:103740001AD058F83960A6B108EBC900CDE917B412
:1037500031464568344800900020019017AB504630
:103760002A460CF027FAD5F8D03030465946224682
:10377000984709F10109E1E71FB00EF04FBC00BF07
:10378000D8310100B52A00008034002088320100C1
:1037900039D70000286601004B330100993301003E
:1037A000E032010060330020149201001C6D010022
:1037B000486D01001DE600007C6D0100B06D010048
:1037C000E46D0100186E01004C6E0100806E010076
:1037D000B46E0100E86E01001C6F0100506F010023
:1037E000846F0100B86F0100EC6F010020700100D0
:1037F0005470010088700100BC700100F07001007D
:10380000782D01002471010071D900005871010068
:10381000B4710100E871010088710100C832010033
:103820002010002098320100D032010080B56F4690
:1038300004460025042D04D0605901F0B7FF04357B
:10384000F8E72A494FF0000C274801238E46284903
:10385000884684450FD10025754571461AD000264B
:10386000042E06D04DF808ED0EF09FFE5DF808EB33
:10387000F6E70135F0E70026042E1FD0A5590436DF
:103880002D68297CED6801F01F0103FA01F1C5F8EC
:103890000C15F1E70025854213D00026042E0BD02D
:1038A000A159043609680A7CC96802F01F0203FAAC
:1038B00002F2C1F80C25F1E70135ECE70CF1010C3F
:1038C000C7E70025454541460BD00026042E06D00B
:1038D0004DF808ED0EF069FE5DF808EBF6E70135EE
:1038E000F0E74FF0000CB4E740420F00A086010063
:1038F00020A1070080B56F4604460846FFF790FCFC
:103900002046FFF793FFFEDEF0B503AF4DF8048DC0
:10391000D0E90216B14209D2D0E900230846314667
:10392000FDF750FC10B305460C460DE01ED9426869
:103930008A421DD30068541A45182EB13246FFF74B
:1039400040FA0646884602E04FF0000800260D487F
:103950002946224605F060FE46B10A4831464246F5
:103960005DF8048BBDE8F04005F056BE0EF00ABCD1
:1039700002482321024A09F073FDFEDEDC720100D9
:103980002473010080340020F0B503AF2DE9000B53
:103990008CB00446904609A893E864008946014625
:1039A000032364C102220121CDE900124A460EF030
:1039B000E3FC05A80BF058FF0EF048FC02D00EF017
:1039C000C3FB09E00EF0D3FC04D0002393704FF446
:1039D000407313800EF09FFB0EF0BFBBF0B503AF3A
:1039E0002DE9000B8CB00446904609A80EF0BAFBF6
:1039F00005A80C230BF038FF0EF028FC02D00EF0C7
:103A0000A3FB06E00EF0B3FC01D0002313600EF020
:103A100082FB0EF0A2BBF0B503AF4DF8048D8CB065
:103A20000EF073FE0DF1240C0E466146002325C1F5
:103A300008200121CDE900103246CDE902104146AF
:103A4000CDF810C005A80BF00FFF0EF0FFFB02D061
:103A50000EF07AFB01E00EF083FC20700CB00EF04B
:103A600091BBF0B503AF4DF8048D8CB00EF04DFE58
:103A70000DF1240C0E466146002325C100200121D2
:103A8000CDE900114146CDE902003246CDF810C023
:103A900005A80BF0E9FE0EF0D9FB02D00EF054FBA6
:103AA00001E00EF05DFC20700CB00EF06BBBF0B5C9
:103AB00003AF2DE9000B8CB00446904609A80EF028
:103AC00051FB05A804230BF0CFFE0EF0BFFB02D084
:103AD0000EF03AFB06E00EF04AFC01D00023136022
:103AE0000EF019FB0EF039BB80B56F46DAB01190BD
:103AF00018300DF1E80B03900BF10D000D910C90B7
:103B00002CA80430049017A800F1110104300A9089
:103B10000B911198D0F82CA001F04CFEC54EDFF8A7
:103B200018834FF00009A0BBD8F82C500DB1287BAA
:103B300000E00220022818BF10F0010029D1BF4880
:103B4000C069002800F05487CDF858A05AF8045FE7
:103B5000BB4EDFF8F082002D00F04687D5E9004526
:103B60003146206830B1616849698847002841467C
:103B700040F04C87DAF8000008B1426800E000220B
:103B8000CAF80020FFF73CF901465046FFF7E4FA77
:103B9000E1E7D8F8300058B190FAA0F10122B1FA6B
:103BA00081F18A409043C8F83000002900F09D80E0
:103BB00030684FF0000A00F00F00411C6FF01F004A
:103BC000514500F0D38606F5FE72203052F82A20C7
:103BD0000AF1010A002AF3D092FAA2F1B1FA81F4B3
:103BE00044EA00013291272901F22F839648D0F848
:103BF00038E0CDF858E01394DFE811F02800960182
:103C0000B801BD01D201270BE7010C023002AD0063
:103C1000B000270BDD00F7003201270B270B6C01EA
:103C2000270B3502270B270B270B270B270B270BFF
:103C3000270B270B270B270B270B270B270B270BF4
:103C4000270B4902270B270B270B4E02DEF8B40087
:103C50004FF0FF31C0F80813DEF8B400D0F81C11A3
:103C6000C9070BD0C0F81C91DEF8B80030B1DEF8FF
:103C7000BC10CA6803219047DDF858E0DEF8B400B4
:103C8000D0F82011C9070BD0C0F82091DEF8B80099
:103C900030B1DEF8BC10CA6804219047DDF858E066
:103CA000DEF8B400D0F82411C9070BD0C0F8249175
:103CB000DEF8B80030B1DEF8BC10CA6805219047C4
:103CC000DDF858E0DEF8B4004FF46071C0F80891F8
:103CD000DEF8B400C0F81491DEF8B400C0F8189112
:103CE000DEF8B400C0F80413DDE35748826B92F8A5
:103CF0009C0282F89C92032812D002281BD0012833
:103D00007FF447AFD2F8900200283FF442AFD2E9E7
:103D1000A5310029C2F898923FF43BAFDB6817E069
:103D2000D2F8900200283FF434AFD2F894124A69D6
:103D3000002190472DE7D2F8900200283FF429AFE8
:103D4000D2E9A5310029C2F898923FF422AF1B694D
:103D5000002298471DE70EF5B27081E1DEF874018C
:103D60000F91002800F09F83DEF878C10023002126
:103D7000042B00F08482DEF8704104EB83050133EC
:103D8000D5F84051ED07F3D004EB8304C4F83C911F
:103D90005C1E032C8FBF4FF400152C4A02EB8305E9
:103DA00055F8045C012202FA04F42143DEF8704164
:103DB000C4F80853DCE7DEF84C010122C0F8082300
:103DC000DEF84C01D0F808154260DEF84C01C0F86E
:103DD0000823DEF85001002800F065838908642379
:103DE000DEF854215943D2684FE1DEF82001012565
:103DF000C0F80853DEF82C01042880F04482DEF875
:103E00002011441CDEF830C1182202EAC000D1F8AB
:103E1000083503FA00F040EA0C00CEE94B40C1F847
:103E20000091DEF82001C0F80453DEF8200105609F
:103E300039E300BF04E000E0803400202037002098
:103E4000C82C0100B82C0100B43600203832010023
:103E5000503800201492010018880100F8910100E8
:103E6000DEF80C000F910321C0F80813DEF80C50A7
:103E7000D5F80001012840F016830EF134085846A9
:103E80008022DEF828404146DEF830600EF0C6FEA3
:103E9000301B102828BF1020A642C0F091820028B5
:103EA00000F08E82DDF858C00BEB040301190022EC
:103EB000A018884280F095820F2A01F25181802853
:103EC00081F053815FF87800104490F850009854C6
:103ED0000132EDE7DEF83401D0F80411C9070AD049
:103EE000C0F80491DEF8380128B1DEF83C11C96849
:103EF0008847DDF858E0DEF83401D0F84011C907F2
:103F000000F0D1824FF48031C0F80813DEF834019C
:103F1000C0F84091DEF84001002800F0C482DEF8CD
:103F20004411C9688847BEE25EF8C00FD0F810158A
:103F3000DEF8400001F00F010F29D0F8100500F065
:103F40000F0040F0BF81032840F03D825FF8FC0085
:103F50003E9001203B905FF800013A905846CDF822
:103F6000FC90CDE93C990BF03DFA9CE20EF5BE7059
:103F70000CF0C8FC97E2DEF8B4010EF5F074D0F84E
:103F8000000500F00F0520460CF050FD072D40F015
:103F9000C6800028169840F0868200F5DA7078E036
:103FA000DEF804020EF50C74D0F8000500F00F05E1
:103FB00020460CF03BFD072D40F0B18000281698FC
:103FC00040F0718200F5017063E0DEF8CC4300251B
:103FD0000F91082D00F0A98404EB8500D0F80011A2
:103FE000C90715D0C0F80091D0F81005C0F305201E
:103FF0002F2801F2AF8000EB80000EEB8001D1F89A
:10400000C40328B1D1F8C813C9688847DDF858E05F
:104010000135DEE7DEF88002D0F81011C90740F064
:104020005981D0F80011C90740F0D181D0F80411AE
:10403000C90740F03282D0F81411C90700F033826A
:10404000C0F81491DEF88002C0F80095DEF8840212
:10405000002800F02882DEF8881214E00EF5AC701B
:104060000DF072FF1FE2DEF80000D0F80811012900
:1040700040F01982C0F80891DEF80400002800F032
:104080001282DEF80810CA68002190470BE20EF594
:1040900015700CF0DBFC06E2DEF8B0020EF52C73B6
:1040A0000F914FF0FF31D0F80483C0F808130020BF
:1040B000DEF8B0123A90D1F800211593D20706D05D
:1040C000C1F800913A9840F001003A901968D1F88F
:1040D00004210125D2071FBFC1F804913A9840F08E
:1040E00002003A900024082C20D01599096801EBB1
:1040F00084020134D2F80821D207F4D001EB840005
:10410000C0F80491601E0DF031FC00F01F00DDF8D6
:1041100058E03A9905FA00F008433A90E3E700289E
:1041200000F0C18120460CF0DFFCBCE1159B196852
:10413000D1F82821D20706D0C1F828913A9840F446
:1041400080603A901968D1F82C21D2071FBFC1F8BE
:104150002C913A9840F400603A900024082C19D031
:104160001599096801EB84020134D2F83021D20795
:10417000F4D001EB8400C0F82C91601E0DF006FC19
:1041800000F01F00DDF858E03A9905FA00F0084306
:104190003A90E3E7159B1968D1F85021D20706D071
:1041A000C1F850913A9840F480103A901968D1F8CB
:1041B0005421D20707D0C1F854913A9840F4001026
:1041C0003A9015990968D1F85821D20707D0C1F85B
:1041D00058913A9840F480003A9015990968D1F8BE
:1041E0005C21D20707D0C1F85C913A9840F40000F6
:1041F0003A9015990968D1F86021D2071FBFC1F81C
:1042000060913A9840F080703A902C902C9800EA97
:1042100008001490C00774D000204FF49461B0F5EA
:10422000807F5ED00EEB000292F8CC3213B3012BEC
:1042300004D182F8CC5282F8CD921BE00223C2F85E
:10424000D49282F8CC3292F8CE32032B18BF0023DE
:1042500082F8CE32D2F8D032043BB3FA83F34FEA7D
:1042600053134FEA8303C2F8D0321EBF159B1B685D
:1042700043F80190A2F8D89204312030CFE7DCF85F
:104280000C20904751E340F0A980DEF8240100287B
:1042900000F00981DEF8281100235FF840240EF5B4
:1042A00090743A94CD685946A847002840F0FB80A6
:1042B00020680121C0F800912068C0F8041320682C
:1042C0000160F0E0032840F0EE800EF140000CF0B9
:1042D00083FAE8E0C0F81091DEF88002C0F800959B
:1042E000E1E0D0488EF8C19310B100BF0138FBE780
:1042F000DEF8B40228B1DEF8B81249698847DDF863
:1043000058E0149DCDF83880A80705D515980068A9
:10431000D0F86814C0F8681400244FF00008B4F511
:10432000807F3AD040460DF021FB00F01F00DDF801
:1043300058E025FA00F0C0072BD0DEF8B002C0F834
:104340001C9C8EF8C19324B30EEB0406DC4606F5E4
:104350003375294691E80D0059468CE80D0023A8D5
:104360000CF0D6F89DF88D109DF88C0001298DF881
:104370005C1040F00C87DDE9241202232B70C6E9A3
:10438000B41286F8CE3286F8CD02A74EDDF858E09A
:10439000149D08F101082034C1E7680540F1AE80A2
:1043A0009EF8CD529EF8CC0229460DF0FFFA01216D
:1043B000DFE805F002868E921598006841659AE064
:1043C000DDF858C01EE070460CF022FC6BE0C0F82F
:1043D00000910121DEF88002416064E0CEE94B9952
:1043E00061E04F20CCF82810A0F12F02112A08D349
:1043F0005FF8A4351A5C01321A54D3B201389342E3
:10440000F2D10C46B4420CD2C5F800910121DCF87F
:104410000C00854E01600321DCF80C00C0F8041389
:104420007CE20CF118000DF0E4FC169900287E4E99
:1044300000F0748201F120000DF0DBFC169C0028D6
:1044400000F06C82D4E90612C4E90699002900F054
:104450006582D4E9083CC4E90899002B00F05E822B
:10446000D4E90B65B542C0F03F87654500F241874E
:10447000A81B904200F2408703EB060E0026B042D4
:1044800000F04382802E00F078861BF806508C5D89
:104490006C400EF806400136F1E7C0F804910121A6
:1044A000DEF880028160AAF10100139A0121914097
:1044B0005E4A42F820105E4A42F82010FFF769BBBE
:1044C000DDF858E09EF8C10370B18EF8D81214E000
:1044D00015980CF08BF80EE0DDF858E09EF8C1035B
:1044E00030B18EF8D91208E015980CF099F802E076
:1044F00015980DF075FADDF858E0149D280500F1C7
:10450000938600244FF00009B4F5807F00F092807C
:1045100048460DF03BFA00F01F00DDF858E025FAA0
:1045200000F0C0076ED0DEF8B0020021C0F81C1CFD
:104530008EF8C113B4B30EEB04083AA908F5337032
:104540000E4690E82C002CC623A80BF0E1FF24981F
:10455000032840F02886DFF8C41B08F53170DDF829
:1045600094B09DF88C509DF88D60CDF85CB00BF048
:104570000BFF5945C0F01B863AAA0BF081FFDDF80E
:1045800058E0DEF8B402E8B3DEF8B8124A465B46FB
:10459000D1F830C02946E047C0B220B3012819D174
:1045A000012020E0DEF8B40260B3DEF8B8120B6A36
:1045B00015990968D1F8A02400219847DDF858E042
:1045C000C0B201281ED028BB15980CF00FF8DDF8FA
:1045D00058E017E04846202161F3DF00159909688B
:1045E000C1F818050020DDF858E0B9F1080F80F097
:1045F000B385C8F8D002022088F8CE6288F8CD5280
:1046000088F8CC0209F1010920340DF1E80B064EBF
:10461000149D79E7DEF8B00201214165AEF8CC12B5
:10462000F0E700BF00350C0004E000E080E200E0AD
:1046300000E100E0E80200F11286A8024FF0000954
:1046400000F11E86680205D515980068D0F80014A0
:10465000C0F80014E80123D49EF8C1030DF1E80B63
:10466000DFF8A08C002800F0C0801498000211D55B
:104670009EF8CD5274469EF8CC02CDF88C90294617
:104680000DF094F9002D00F0E380159801210068E9
:104690004165DD4E15980E990068C0F8001344E19D
:1046A00015984FF0010B4FF000090068D0F86C240A
:1046B0001292C0F86C241146B9F1E00F43D0ABF16F
:1046C0000100072880F05C85129820FA0BF0C007E3
:1046D00034D00EEB09053AA905F53B780846444667
:1046E00094E84C004CC023AC20460BF011FF9DF821
:1046F0008D109DF88C0001F003028DF85C10012AEA
:1047000000F05F85032900F06A85DDF858E0022398
:10471000DDE9241285F8ED02DEF8B402C5E9BC1229
:10472000002188F8003085F8EE1230B1DEF8B812BA
:104730004A6B59469047DDF858E0B34E0BF1010B38
:1047400009F12009B8E70123002240F2A44B4FF001
:104750000009E02A3FF480AF581E072880F0138537
:10476000129903F1100021FA00F0C00738D00EEBC7
:104770000204109304F53B793AA990464E46084648
:1047800096E82C002CC023A80BF0C2FE249B9DF8B9
:104790008C009DF88D10042B259A1892179300F029
:1047A0002285159A126852F80B2033B1964E012BD0
:1047B000DDF858E007D000F01ABD934E0123DDF874
:1047C00058E084F8F932022384F8EE1289F80030B8
:1047D0004FF00009C4E9BC324246109B84F8ED0258
:1047E00001330BF1040B2032B3E70EF536740025CC
:1047F000082D3FF43AAF207884F80090C0070FD01E
:1048000025B1159829460DF0EFF802E015980BF048
:1048100007FFDDF858E09EF8C10300287FF425AFBC
:10482000607884F80190C0070FD025B1159829460B
:104830000DF03EF902E015980DF0D2F8DDF858E0E1
:104840009EF8C10300287FF410AF01352034CFE774
:10485000DFF8941B04F531700BF096FD072940F248
:104860003085D4F8B012D1F880140170D4F8B012A9
:10487000D1F884144170D4F8B012D1F88814817042
:10488000D4F8B012D1F88C14C170D4F8B012D1F8A9
:1048900090140171D4F8B012D1F894144171D4F885
:1048A000B012D1F898148171D4F8B012D1F89C14D8
:1048B000C171D4E9AC100028D1F89864D1F89C54A7
:1048C0003FF4E7AED4F8B812239C8A69214690479A
:1048D000C0B218B101283FF4DCAED6E6F0B265F301
:1048E0000F2058B315980368D3F88014090629D40B
:1048F0001699082C80F0898401EB441140F20132B2
:10490000A1F8CC220121D964C3E6169C3E4E206951
:1049100020B16469E468CDF800C0A047404659461C
:1049200080220EF07BF9DFF8DC890F99AAF10100F3
:10493000B1F5806FFFF4B9AD00F01ABC15980BF01B
:1049400055FEA6E6169A072C00F2618402EB44138A
:1049500040F20111A3F8CC1292F8C11319B1012150
:1049600083F8D81295E60BF05BFE92E6D8F82C801F
:10497000B8F1000F1CBF98F80C0000283FF4C9A83C
:10498000D8E9000100244FF0000900F1080601EB0E
:104990004100850095B100F00DFF78B9307848B13D
:1049A00056F8080C30B156F8041C86F80090CA6816
:1049B0002146904701340C3D0C36EBE7D8E9001056
:1049C00000EB4000820010463AB101F10C03097A75
:1049D000A0F10C0200291946F5D0002818BF0120CB
:1049E00088F80C00FFF795B800220023002014E09F
:1049F00072B600F0DFFE002840F06483002D00F066
:104A00005A83287B58E300BF04E000E0D4E900109B
:104A1000C268584690473AAB0DCB169C217A19B123
:104A2000266826B900F0FABB42F21076266000280C
:104A300000F0F083DFF8D018D1E908010AF09AFFFE
:104A400000283FF466A8DD4C804600208946E060DF
:104A5000206160611198056B284625B9A069642121
:104A600020F07F404843A0FB0601D54A00230EF00A
:104A7000BEF820F07F40206100206061119890F81E
:104A8000340000284FF0030008BF0720E0602846EC
:104A900009F0B2FF002800F04383B1F5FA7F40F23D
:104AA0003F83D9F80C5058464146A84700F082FE93
:104AB000002840F00A83DFF84C08C06A08B1007B88
:104AC00000E00220022818BF10F0010040F0FD8233
:104AD000D9F8141040468847002800F0F982D9F828
:104AE000281040468847C0B24FF0000BDFE810F0B6
:104AF000D4000700F202F202DB03DB030700D9F85F
:104B00001C2017A8414690471798022800F0E08221
:104B10009DF86C40002800F0EC800D98002800F013
:104B2000C98320A84146A346A84720ABDDE9185415
:104B30000ECB1494D1E901011A9C1594CDE91232DF
:104B40000AF052FF002800F01F820A46344616463B
:104B5000D5E90101DDE914230AF046FF3246264675
:104B6000002800F01182CDE90EB20DF18C0B1095EA
:104B7000099120A9584691E82C002CC05B460D985D
:104B8000D0E901543AA822462946FEF744FF9DF891
:104B9000E800002840F0F881CDE907455846DDE9F6
:104BA0003B15D5F8A030DDE93D428B46069298478B
:104BB0009DF88C00002840F08B8324986FF0070349
:104BC00005950DF030FC2892C1F307222692CAB257
:104BD00009BACDE9294BCDE923020DF029FA259038
:104BE000104427902B955946EA683AAC20469047E6
:104BF0000D98DDE90721056815982E9014982D90E1
:104C000010982C9020462CAC2346FEF704FF9DF80C
:104C1000E800002840F0B28107952046DDE93C45D8
:104C2000CDF854B0DDF8ECB03E9AD4F8A030594637
:104C3000149298479DF8B000002840F049832D98C1
:104C40006FF0070308940DF0EEFB3F92C1F30722CB
:104C50003D92CAB209BACDE9405BCDE93A020DF006
:104C6000E7F93C9010443E9042945946E2682CACDF
:104C7000CDF840B0204690473AA90F9A20460AF056
:104C800088FC9DF8B000002800F0B48000250023C7
:104C90000E9CDDF850B05FE1D9F888104046884797
:104CA000DFF88CB60521454DDBF828004160414610
:104CB000119C94F8340000284FF0030008BF07202F
:104CC000E860D9F8C02017A8904794F8340000286D
:104CD0004FF0010008BF0520E860DBF82800002144
:104CE000416017980A2818D1D9F8381040468847EB
:104CF0004AE10A990DF1E80B584691E82C002CC0C6
:104D00001322DDE90B108DF8F4400DF07DFFD9F88A
:104D1000BC2040465946904738E100F00E010DF1A5
:104D2000E80B08294FF0000108BFC11F022906D077
:104D300001290CD1D9F838104046884726E111984E
:104D4000006B09F059FE012800F02081E8E10DF127
:104D50005C0E23A9F4469CE83D00DC463DC171464B
:104D600091E83D0059468CE83D004046D9F8E420E2
:104D700090472398072804D80121814011F0C10FE2
:104D800006D1022802BF24990E4A914200F0A48065
:104D9000DFE800F05B0404040404719924980728F8
:104DA00012D8DFE800F004B1B7BDC3A9A9C90DF05E
:104DB00047F9DFF89C25816AFEE000BF04E000E0CF
:104DC00040420F0003000500B0F5803F00F0E18095
:104DD000CF49884200F0E580CE49884200F0E78064
:104DE000CD49884240F088800DF02AF9DFF84C2543
:104DF000816BE1E0DDF810C032A99CE83D003DC1C7
:104E00000799DDE912320DF0F1FADDF850B0002813
:104E100000F09880DDE93252079232AC13902046C0
:104E20000C460AF00FFE129032A80AF00BFED4F8DE
:104E30008CC0079C0090002C224618BF2A4637A839
:104E4000DDE91231E04720467EE02498012800F297
:104E50009D80259D06D0D9F8181040468847002827
:104E600000F0BD80D9F87C304046294601229847A1
:104E7000D9F82C1060E724980F2800F2B780259D00
:104E8000DFE810F01000B600C500C900CD00D10069
:104E9000D500D900DC00E300EC00EF00F700FC00D7
:104EA00001010601D9F85030584641462A46984734
:104EB0009DF8E81002980029B1FA81F118BF092085
:104EC00049098900E9E0DDE92402002878D00128B9
:104ED0007CD1D9F84C3075E0259820F001000228EB
:104EE0007FF45CAFD9F868304046DDE92612984778
:104EF00000286FD023984BE7CDE93B8923A83A904F
:104F000058460021002258E00DF09AF8DFF84824B6
:104F1000816851E00DF094F8DFF8302401694BE02E
:104F20000DF08EF8DFF82024016845E00DF088F8D8
:104F3000DFF82024C1683FE00DF082F8DFF800249C
:104F4000416A39E0DDE932500E9C002808BF054671
:104F500032A80AF077FD034614F001000F99099A70
:104F6000009518BF114623A80AF0C0FA08985946C0
:104F7000D0F8A82010989047DDF854B0059806990D
:104F8000D0F8A820584690470DF1E80B1198056B12
:104F90007DE5CDE93B8923A80399DFF898233A9072
:104FA0000AE00DF04DF8DFF89023C16B04E00DF03E
:104FB00047F8DFF890234169584600F027FAE5E703
:104FC000D9F84830404601219847DFE700203A9061
:104FD0000A2002E000203A9006203B9060E0D9F8D9
:104FE0007C304046294600229847CFE70A205BE004
:104FF000D9F85430584641462A4698479DF8E8006B
:10500000002819BF092000213B98052145E00DF03B
:1050100060F83D9840E00DF05CF840983CE00DF001
:1050200058F83A9838E00DF054F83C9834E00DF018
:1050300050F83F9830E0D9F858101CE00DF049F8CE
:105040000DF026FA91B3584406E00DF042F80DF049
:105050001FFA59B358440844052129E0D9F86C20B7
:1050600001E0D9F870204046294690470421029873
:1050700013E0D9F86010404688470DE00DF003FAC0
:1050800088B1006808E00DF0FEF960B1406803E007
:105090000DF0F9F938B1007A05210290CDE93A1006
:1050A000D9F8B82035E601200021F6E701200021DB
:1050B0000DF1E80BF1E70220022818BF10F0010003
:1050C00000D130BF62B6FEF724BD4FF0010B01E006
:1050D0004FF0000B1198006B09F08EFC884A0023FA
:1050E0000028D3601361536118BF761ABBF1000F1B
:1050F0000DF1E80B4FF001011BD016980068B0428B
:1051000017D9169A801B11721060FEF702BD00BFFE
:105110000900020001000400030005007C8E01006C
:10512000D9F8E0104046884775480021C160016108
:105130004161169800210172406800B14168CAF8C7
:1051400000108649FDF75CFE01465046FEF704F864
:10515000FEF7DFBC874A06E08F4A4846082109E08F
:1051600002F12000804A302104E0804A802101E0E1
:10517000A24A202108F08AF9FEDE7D4A3046F5E792
:105180008D488E4A01E08C48924A282149E03AAC89
:10519000182120460DF06CFD774917A8774B224661
:1051A0000BF0D8F9FEDE7A484A217A4A39E00DF050
:1051B0005EF87A483A907A483D91249017A8794948
:1051C0001EE001200021CDE93E40CDE93B017C48B5
:1051D0003A907C483D91249017A87B4910E07B4889
:1051E00024217B4A1DE07E4825217E4A19E00DF0EE
:1051F0003EF873483A9078483D91249017A8774933
:1052000023903AA807F0DAFEFEDE794A00E0774AFA
:105210002046A3E752482B21524A02E03B48202176
:105220003B4A08F01DF9FEDE0120554A289017A9D7
:105230002392544A0DF090F9364A0DF09DFA5248E7
:105240003F91CDE93D1251492AE00DF010F86C482C
:105250003A906C483D91249032A86B49D0E70120E8
:10526000474A289017A92392464A0DF075F9294A12
:105270000DF082FA4C483F91CDE93D124B490FE0C9
:1052800001203F4A289017A923923E4A0DF064F965
:10529000204A0DF071FA46483F91CDE93D1245494B
:1052A0003A9023A8AEE700201A490DF06DF81A488D
:1052B0001A4917E0002017490DF066F81A481B49F3
:1052C00010E0002013490DF05FF84A484A4909E010
:1052D000002010493F903D903C9001203E913B9032
:1052E0000F4810493A908CE73046294608F0EAF812
:1052F000FEDE2846614600E0114608F0E8F8FEDED2
:1053000004E000E08034002020370020B82D0100A8
:10531000182E0100149201000C3401001434010015
:10532000748701007C870100543401005C34010063
:10533000B4360020684B0100804B0100984B0100FF
:10534000B04B0100C84B0100E04B0100F84B0100DD
:10535000104C0100284C0100404C0100382E010087
:10536000A6860100282E0100D4900100E4900100DF
:10537000F49001002C9001007C890100308B010029
:10538000748901004FD70000508B0100588B010039
:10539000688B0100B48B0100C48B0100648E010096
:1053A00051D000008C8E0100D48B0100DC8B0100F9
:1053B000F88B0100008C010038890100788F010012
:1053C000588C010081050100608C0100108C0100E7
:1053D000348C0100888F0100B1060100A88C010007
:1053E000708C0100988C0100B88C0100FC8C0100CD
:1053F0000C8D0100E48C0100EC8C0100B05F010019
:105400005837010051D0000078370100F0B503AFE4
:105410002DE9000FA5B08146061D59F8080B8846F6
:1054200093460168DFE811F0AE0108006C008400CB
:105430009100A500AE01AE0141680DF1800AD0E9EE
:10544000025400690490D9F8000003913168C268E1
:1054500050469047A44605965CB1D9F800106446C2
:105460003068D1F8B42061469047A446002800F087
:10547000AA80B8F1000F00F0A980D9F800203168A7
:1054800010AB02959AE8700018460DF1180A70C02A
:10549000DDE90254049815905046CDF858C0CDE986
:1054A00013450AF08FF80698002800F034810E9E0C
:1054B000092E40F05881059C4046D9F800305946E5
:1054C00022680AF045FBC0B2012840F04B810AF186
:1054D00004010DF1640A1C22D9F8005050462668D8
:1054E0000DF092FB10A831462A4653460AF06AF89E
:1054F0001098002800F05181DDE9163C189E34E137
:10550000B8F1000F45D08168D0E903A4D9F80000B4
:1055100004913168C26810A89047DBF80C504146EE
:10552000009410A8019006A8049A5346A84734E0B6
:105530000DF00EF93ED00CF02EFF466F19A8B047C3
:105540001998002846D00B2120E00DF001F934D045
:105550008068B24604902A46D9F800002346316894
:10556000466F06A8B0470698002874D00D21079A08
:105570000DE00DF0EDF823D00CF00DFF866F19A8AB
:10558000B0471998002800F08A800F211A9A5646D1
:10559000DEE00B200790002006900DF1180E306819
:1055A000D9F800C010A99EE86C000C466CC4DCF869
:1055B000B820E6E00B210B22CAE00B220D21C7E048
:1055C0000B220F21C4E01121062601E011210B2638
:1055D000049BCBE0D9F800200DF1400CCDF814A0CD
:1055E000DAF8001019A800F1040E64469EE8690478
:1055F00084E86904039CCDE9004C06ADDDF810A0F9
:10560000284653460AF0DBF80698002800F0908000
:105610000C9A092A40F096800CF0E0FEC0B20128F6
:1056200040F0B38005F1040ED9F8002031680DF187
:10563000800C9EE86901A346644684E869015346EC
:10564000CDE900BC10A80AF0BAF81098002800F0C4
:10565000A9800B211FE0D9F80000CDF814A0DAF8DA
:1056600000100DF1800AC2685046904706A80DF15F
:10567000640C0430624690E87A007AC24146524691
:10568000DBF81040CDF800C010A8049BA04710988C
:1056900000284FD00D21119D129C169A57E0D9F881
:1056A00000200DF1400CCDF814A0DAF8001019A874
:1056B00000F1040E66469EE8390486E83904039C2E
:1056C000CDE9004C06ADDDF810A0284653460AF09F
:1056D00021F8069890B30C9A092A35D10CF07EFE79
:1056E000C0B2012854D105F1040ED9F80020316868
:1056F0000DF1800C9EE86901A346644684E86901C7
:105700005346CDE900BC10A80AF004F81098002810
:105710004AD00F21BFE7DDE90C8605982A46D9F863
:10572000001000684B6A214698471021C4461DE0CE
:105730000A2104E00C21119A129D08E00E21079A1B
:10574000089D04E00B2100E00F21079D089C059EA9
:10575000D9F8003011923068D3F8B820139412951C
:1057600010910DE00926DDE90C3C11210598D9F8CE
:1057700000201393006810AB83E84210D2F8B820E1
:1057800010A9904725B00CF049BC09220B2101E07B
:1057900009220F21079D089CDAE7DDE91686DDE97D
:1057A0000254BAE70A21C6E70E21C4E700680CF0EC
:1057B00047BBD4D40A4901F5FE70096801F00F0116
:1057C0004A1C002108C81943013AFBD109B1012044
:1057D00070470448006B002818BF0120704700BFC5
:1057E00004E000E080340020F0B503AF4DF804BDC4
:1057F000864600265EF8045FDEE901C4CEF800604C
:10580000CEE9016655B1C0E9015C9568C460AC425F
:1058100004BF91F8E040002C02D114E0C0E902C4BA
:10582000E0240D4644B103681C3C2E69DE60066826
:10583000AB691C353361F5E792E831008EE8310041
:10584000002081F8E0000CF001BCD4D4F0B503AF27
:105850002DE9000F8FB0D7F80CB0994616460C46CC
:1058600082460025E02D0AD00CF0ABFE1C35002846
:10587000F8D00020CAF800000FB00CF0CFBB4FF0FA
:1058800000080025B8F1E00FF3D0B8F1000F02D006
:105890005BF8080018B1013508F11C08F2E7E006D2
:1058A000CDF81CA024F01F00A24618BF00F1200A6A
:1058B000B9F1200F98BF4FF02009A9F1010019EAB2
:1058C000000F05D1BAFBF9F000FB19A0002843D066
:1058D0009AFAAAF0B0FA80F0202802D20121814081
:1058E00008E048460AF027F9B0F5807F98BF4FF4EA
:1058F0008070C108C80059D0B9FBF1F202FB1192C7
:105900008B1A002A18BF9944202921BF09EB0A0CE1
:10591000BAFBF0F202FB0003634510D248460AF0DE
:105920000AF900284AD0BAFBF0F10022414381462F
:10593000A1EB0A01014401EB0A039A460FE002FBC6
:1059400010AC02FB00F3B9FBF1F2BCFBF1F10A442D
:10595000A2F1010C012202E00022484653463444E1
:105960000AEB0906A64203D907990020086083E7DD
:10597000CDE90005B868CDE902215146CDF810C047
:105980004A46059008A808F0B3FF082D11D20BEB8A
:10599000080008A91C220DF037F9079901208BF89F
:1059A000E000C1E9000AC1F8089065E70648094A25
:1059B00006E0074A28460CF075FCFEDE0248034A62
:1059C000392107F04DFDFEDE10300100983701004F
:1059D000A837010088370100F0B503AF4DF804BDCA
:1059E00086B00B46116809B1984204D901252846B2
:1059F00006B00CF02BBB1446D2E901125618D5089C
:105A00009E4201D1082006E0082A18D3CE43304434
:105A10002844B0FBF5F000FB051601259E42E6D8B0
:105A2000013800238DE82C00CDE9033020460B46D9
:105A3000059508F05DFF84F8E0500025D7E703489E
:105A40001921034A07F00CFDFEDE00BF8030010083
:105A5000C8370100F0B503AF2DE9000F8DB0D7E9CD
:105A600002AB994616460C4680460025E02D05D02F
:105A70000CF0A7FD1C350028F8D04CE00AF12000FE
:105A80005546484538BF48460AF055F80028814633
:105A9000B0FA80F118BFC1F11F00082802D24FF4FC
:105AA000807904E0202836D8B9F1000F58D0B4FB33
:105AB000F9F0A24600FB19400028A9EB000118BF2D
:105AC0008A442DB14FF48070B0FBF9F0013000E052
:105AD00008204FEAD901A9EB050200FB01A15244BD
:105AE000914213D95FEA490937D0BAFBF9F000FBBC
:105AF00019A00028A9EB000118BF8A44002D0FBF90
:105B000008204FF48070B0FBF9F00130A11909EBC7
:105B10000A028A4205D90020C8F800000DB00CF036
:105B20007DBA002101250138CDE90091CDE902516E
:105B30005146CDE9040506AC4A465346204608F0D6
:105B4000D7FE584621461C220DF05EF88BF8E05037
:105B5000C8E9005AC8F80890E0E70448054A01E09F
:105B60000248034A392107F07BFCFEDE10300100B9
:105B7000D8370100E8370100F0B503AF4DF804BD98
:105B8000B8B00446E02069460022012310251F26F4
:105B900038B1C1E903651C38C1E9053241F81C2B55
:105BA000F6E769462046E0220DF038F8012004F1BE
:105BB0000C0184F8E00000221F230024082C0AD0E6
:105BC00044F0100541F80C2CC1E902020134C1E98E
:105BD00000351C31F2E738B00CF038BAF0B503AF3D
:105BE0004DF804BD8AB001AB91E870001A4670C24E
:105BF000D0E9011204A8FDF70EFF0CF0ADFB02D0B6
:105C00009DF811000EE00CF05EFA01A80CF0A1FB6B
:105C10000CF044FB08D1F26804A8214690470CF030
:105C200027FA06200CF05ABA002005490CF0F9F9C1
:105C300004480549049004A807F0C0F9FEDE00BF3F
:105C400014920100748701007C870100F0B503AF56
:105C50002DE9000FA3B00646032A08D89A46FD682E
:105C6000DFE802F0020A245004203060E0E00A205D
:105C70000021C6E90010DBE0D1F800A00DF16809B1
:105C800095E81C000DF1300848461CC04046D1E99B
:105C9000013219464B46FDF7BEFE9DF83010002933
:105CA00069D09DF831008DF86900B6E009680DF102
:105CB00068080691CDE90756486889680CAC00F180
:105CC00004094FEAC10BBBF1000F42D059F8046C34
:105CD0009EB1D9F800003146C5684046A8471AABC6
:105CE0000CF077FB012808BF514506D1204631460C
:105CF000A8470C98002840F09E80ABF1080B09F1F2
:105D00000809E0E709680DF1680806910DF1300B0C
:105D1000CDE9075648688968051DCC0014B355F8CD
:105D2000046C9EB128683146D0F80C904046C847B4
:105D30001AAB0CF04EFB012808BF514506D158465E
:105D40003146C8470C98002840F08F80083C083541
:105D5000E4E70620089D0D9000200C9094E80F00C9
:105D60000FC565E00620089C0D9000200C909BE874
:105D70000F000FC45CE0CDE90716DDE90D65D5F82D
:105D8000A030CDF804A0DDE90F420CA83146069200
:105D900098479DF83000002840F0F5800D986FF08E
:105DA0000703CDE9204622950CF03DFB1F92C1F37D
:105DB00007221D92CAB209BA0495CDE91A020CF065
:105DC00037F91C901044EA681E900CA831460596DD
:105DD00090470CAC1AA900224FF0000A204609F0A7
:105DE000BFFB9DF83000002860D00620089ECDE95A
:105DF0000CA0201D16AC90E82C00211D2CC104988D
:105E0000CDF858A0D0F8A820DDE9050190471AA8E0
:105E100021460830FCF7E0FF079909200D9000208B
:105E20000C90002908BF09F1080898E80F000FC678
:105E300023B00CF0F3B806994FF00009DDE90D230B
:105E40000625D1E901010D95CDF8309009F092FDBC
:105E5000002871D0079C08F1040294E8680068C229
:105E600001221A928DF8789016E006990025DDE956
:105E70000D230624D1E901010D940C9509F07AFD5A
:105E800000285DD0079E08F1040296E8380038C269
:105E900001221A928DF878200A6941469047089AA3
:105EA000002846D00021C2E90010C1E70F9900295F
:105EB0009BD0DDE91023D1E90101DDE90D5B09F09B
:105EC00059FD002891D0BBF1000F08BF01250395B3
:105ED00018BFDB460198CDF808B0D0E901A00AEB65
:105EE000C006D14656452FD0CA465AF8084B002C5A
:105EF000F7D0D9F804502046296C88475945F0D18D
:105F0000039A5946B34641B112F8013B013910F8E2
:105F1000016B9E42F7D05E4608E0EA6816A821466B
:105F2000904716AB0CF055FA5E4640BBDDF808B062
:105F3000D7E7042010607BE70898C0E9009577E771
:105F40000898C0E9005473E74FF0000ACDF854A058
:105F5000CDE913AA0B2000211790169113AA4E45E4
:105F600016A808BF021D09A892E870000DF1680983
:105F70000346062270C3089ECDE90C123AE713913E
:105F80004FF0050AE6E7002006491F90CDE91C0006
:105F900001201E911B90044804491A901AA807F08A
:105FA0000DF8FEDE14920100748701007C87010069
:105FB000F0B503AF2DE9000F93B00C464168A14244
:105FC0005CD90546006850F82400002853D0C0680A
:105FD00001F04BFB8246D5E902102E690390D1E90E
:105FE000010100EBC109484545D000F1080B09F05B
:105FF000DAFD054600285846F5D0D1F898208846A5
:106000002846314690470CF0DBF85846EBD0CDF8E7
:1060100008A02946D8F80CA004A8D047D8F8A0308A
:1060200010A82946324698479DF8400058BB119861
:106030006FF00703039A0D920CF0F5F90CF00FFBCB
:106040000E95CDE907020CF0DAF90B90CDF83C8003
:1060500010A82946D0470CF0A2FB07A8DDF808A03D
:106060002246534609F042FAD8F8A820284631467D
:1060700090475846B7E713B00BF0D0BF094A204607
:1060800007F004FAFEDE002007490C90CDE9090074
:1060900001200B91089005480549079007A806F0D4
:1060A0008DFFFEDE0C3801001492010074870100A0
:1060B0007C870100F0B503AF4DF804BDD0E90123A2
:1060C0009A4227D0144614F8011B44604DB2B5F132
:1060D000FF3F28DC5678941C01F01F0CDF2906F0E6
:1060E0003F0644601AD99578D41CF029446005F025
:1060F0003F0545EA861614D3D1780CF00705141D28
:10610000446001F03F0141EA861141EA8541B1F561
:10611000881F08D14FF4881100220AE046EA8C114A
:1061200001E046EA0C319D1A026815442C44E31A3A
:10613000036010460BF08ABFF0B503AF2DE9000FE6
:106140009BB001460068424C006880680068D0F847
:106150000405029151F8082F20F07F400794D2E9FE
:106160000132039003EBC2020692CDE9041318AE8C
:1061700008A804A9FCF7C2FBDDF820B0BBF1000FB2
:1061800049D0DDE909855946DDF82C90D8F80CA0F6
:106190000CA8D047D8F8A030304659464A46984710
:1061A0009DF86000002848D1199C6FF00702CDF8D7
:1061B0005C80CDE9155B2068C0F307411491C0F302
:1061C00007211291C1B200BA10910CF0D5F90F92CB
:1061D000104411900844139030465946D047E06867
:1061E000012812D1D4E90401039A121A8A420CD36D
:1061F000029B0025E5605A68013A5A600B18009529
:106200000FA8039A002109F071F9D8F8A820584680
:1062100049469047ACE70298416831B11BB0BDE8F0
:10622000000FBDE8F04000F0DBBD00681BB0BDE82A
:10623000000FBDE8F04001F0A2B8002005490CF0C5
:1062400056FA054805490F900FA806F0B7FEFEDE86
:10625000A7FB000014920100748701007C870100F5
:10626000F0B503AF2DE9000F9DB005460C46006860
:106270002246696800F044FECDE9025004F01F0098
:1062800055F8081F4FF0000B434BD1E9012109934A
:1062900002EBC10108910121CDE9065201FA00F09B
:1062A000049405901AAD0AA806A9FCF727FBDDF8AF
:1062B0002880B8F1000F45D00DF12C0A41469AE82C
:1062C0001006E6680EA8B047D4F8A030284641462C
:1062D000524698479DF8680000284ED128461B9DDD
:1062E0006FF00703CDE91798199481462A68C2F325
:1062F00007411691C2F307211491D1B212BA12913B
:106300004FF4FF6101EA523103EA52532A1D119200
:106310001A441392114415914146B047E868059913
:10632000084208D00CF03BFA11A8DDE9033209F06D
:10633000DDF80BF1010BD4F8A820404651469047F8
:106340004D46B0E7BBF1000F02D01DB00BF066BEAA
:10635000029A04985168814281BF116851F8300057
:10636000C0681DB082BFBDE8000FBDE8F040FBF77C
:1063700061BC0D4A07F08AF8FEDE0020074916903E
:10638000CDE913000120159112900548054911909F
:1063900011A806F013FEFEDEA7FB00001492010018
:1063A000748701007C87010034380100F0B503AF29
:1063B0004DF8048D8EB0D0E9032805A891E870004F
:1063C0000021034670C30123CDE9003300230BF005
:1063D000D3FF08A809F048FA9DF8200010B19DF8F5
:1063E000210014E0DDE90A564246D6F8A03005A89F
:1063F000294698470BF02AFF0CD1F26808A82946D5
:106400009047D6F8A82028464146904706200EB06F
:106410000BF0B8BE002005490CF013F904480549FB
:10642000089008A806F0CAFDFEDE00BF1492010025
:10643000748701007C870100F0B503AF4DF804BDFF
:106440000446092A5AD8D1E90001BD68DFE802F004
:106450000509121C262F3F4958620520C4E9000196
:1064600079E099425FD90CF064F85ED0C0680BF017
:10647000E7FC6EE0994256D90CF05BF855D00CF071
:106480005CF8C0F8081564E099424CD90CF051F85A
:106490004BD00CF052F8C0F80C155AE0994242D992
:1064A0000CF047F841D0C0680BF013FD51E0994261
:1064B00039D950F82360C6B3F06803F0A1F8CDB322
:1064C000012D3AD0022D19D1F068012137E099420F
:1064D00029D90CF02EF828D0C06801F0C6F80521A3
:1064E00025E099421FD90CF024F81ED055B3012D98
:1064F0002BD0022D02D1C068012128E00A2015E02E
:10650000994210D950F823507DB1E868FBF792FB0F
:10651000E86805E0994206D90CF00BF805D0C06890
:1065200003F072F815E0062000E00B200021C4E91A
:10653000001010E0F068022101E0F068002103F093
:1065400061F806E0C068022101E0C0680021FBF7A5
:106550002BFB042020600BF079BDD4D4F0B503AF41
:106560002DE9FE0F044690F87C00154630B3D4E9BF
:1065700007B80020C4E90700BBF1000F4BD0606AE8
:106580008A465A464346A8EB0006AE4228BF2E462E
:1065900006EB00094946FAF715FECDE902100CF0AA
:1065A000E6F802461D480B460090DDE9021007F0B0
:1065B00085F9C4E907B8C4F824902CE00120D4E997
:1065C000058984F87C000020B8F1000FC4E90500BB
:1065D00021D02E46A94538BF4E46206803908A46F2
:1065E00060684946029040463246FCF7EAFB0446A2
:1065F0008B460CF0BCF8024609480B46009020463A
:10660000594607F05BF9029842464B4604690096EA
:1066100004A80399A04707B00BF000BD643801003F
:1066200074380100F0B503AF2DE9000FADF52D7DF5
:10663000814691E84501D1E904540FF20A01CDF8F1
:106640002890DFE810F0100109001F0036004A0012
:106650006B0010019E000D01C9E90C6802260BF0C9
:1066600068FE12AD0BF0F6FDD9E91D019B96081AE4
:106670000B910D9090A8CDE99960DE48CDE9976027
:10668000E0483FE0C9E90C6803260BF052FE12AD6A
:106690000BF0E0FDD9E91B01081A0D9002200B91C7
:1066A0009B9090A9CDE99901D248CDE99760D44853
:1066B00028E0C9E90C6804260BF03BFE12AD0BF094
:1066C000C9FDD9E916010BF0EFFF96A9CDE99301B9
:1066D000C548CDE99160C94834E005200BF00EFFB4
:1066E00012AD0BF0B7FDD9E919010B90401A0D90CE
:1066F00002209B9090A9CDE99901BE489890032073
:106700009790BD489690B04893900DA89290B84845
:10671000B34991900BA8909096AA21E006200BF027
:10672000EDFE12AD0BF096FDD9F86000D9F86810B7
:106730000BF0BAFF96A9CDE99301AB4892900420E3
:106740009190AA489090AA489B90ABA99A919E4993
:1067500099910DA9989197900BA8969090AAA0490D
:10676000284607F007F81299281DFCF723FB02467C
:106770000B46114648460BF004FE0DF52D7D0BF03F
:106780004DBC0720059204960895C9F82800C9F861
:106790002C20C9E90C68C9F838500994C9F83C4064
:1067A00012AC201D0790D9F85400CDF81880D0E91C
:1067B00001104FEAC00B01F1040ABBF1000FDCD05D
:1067C0005AF8046C002E46D0DAF8005020463146C4
:1067D000EA689047149840453DD120464FF4FC713B
:1067E0000CF046FADDF8288023462A469946D8E977
:1067F0000301CC687B4900910899019109990291A4
:106800003146A04706460D4612990798FCF7D2FA82
:1068100002460B46114640460BF0B3FD012E11D146
:1068200007200121C8F828004C460598C8F82C001C
:106830000498C8F830000698C8F83400C8E90E1566
:10684000804608E00020C8F82800404600F0DCF848
:106850004C46DDF81880ABF1080B0AF1080AACE7EA
:10686000531CB3420FD10020C9E90C68C9F82800B5
:106870004846C9E90E540DF52D7DBDE8000FBDE871
:10688000F04000F0C1B8082009F12801059281E824
:106890004901C9E90E5412A8041DD9F85400D0E9E1
:1068A00001800DAE08EBC00B4FF0FF30D8453FF430
:1068B00064AF58F8085B002DF8D0411C059A90424F
:1068C0000846F3D158F804ACCDE908340A98DAF850
:1068D0004010446D28468847DAF80C20CDE90B01BA
:1068E0003046294690470120DDE90E232077D4E980
:1068F0000101A46909F03EF830B1D1F8AC10884725
:10690000002808BF014600E00021CDE9101412ACB8
:106910000BF0B1FDDAF8DC1028468847DAF8D4101D
:10692000A89028468847DAF8D810A99028468847C2
:10693000DAF83C10AA9028468847DAF82810AB907D
:10694000284688472049C0B2A79111AACDE9A512CF
:1069500010AAA4921D4AA392A7F11D02CDE9A1128B
:10696000ABAACDE99F12AAAACDE99D12A9AACDE9A9
:106970009B12A8A99A91164999910BA9989115492A
:1069800097910DAE07F81D0C09209696959096A943
:10699000CDE99301104892900A2091900F48104938
:1069A000909090AA204606F0E5FE099C1299204698
:1069B000FCF700FA02460A980B4611460BF0E1FC80
:1069C000089B184672E700BF51D00000BDFF0000D1
:1069D00039D70000B1F900002C410100DC40010072
:1069E000A4380100143B0100603C0100403C010060
:1069F00071D90000803D0100683D0100B83E0100F2
:106A0000683F0100C840010001490622FFF7A6BD0A
:106A10004C420100B0B502AF0B4C00224FF0FF33E7
:106A2000042A08D0A558013304328D42F8D123B985
:106A300000F5CC70B0BD0020B0BD044A184601215D
:106A400006F024FDFEDE00BFE038010074420100C4
:106A5000F0B503AF2DE9000F8FB0064690F86C0239
:106A600010B10FB00BF0DABAD6F868820120934665
:106A70008A4608F10105002486F86C020292CDE9ED
:106A80000051A845EDD296F85E0286F85E42C00736
:106A900044D0D6F89811304652465B4600F0D8F8FC
:106AA00000283BD0D6F89891B9F1070F39D8306853
:106AB000039009A900EB491B0BF11C0A0C46504638
:106AC00090E82C002CC406A809F022FD089A059233
:106AD000079A9DF818009DF819100492DFE802F05B
